{
  "contractName": "ShorEaseToken",
  "abi": [
    {
      "inputs": [],
      "stateMutability": "nonpayable",
      "type": "constructor"
    },
    {
      "anonymous": false,
      "inputs": [
        {
          "indexed": true,
          "internalType": "address",
          "name": "owner",
          "type": "address"
        },
        {
          "indexed": true,
          "internalType": "address",
          "name": "approved",
          "type": "address"
        },
        {
          "indexed": true,
          "internalType": "uint256",
          "name": "tokenId",
          "type": "uint256"
        }
      ],
      "name": "Approval",
      "type": "event"
    },
    {
      "anonymous": false,
      "inputs": [
        {
          "indexed": true,
          "internalType": "address",
          "name": "owner",
          "type": "address"
        },
        {
          "indexed": true,
          "internalType": "address",
          "name": "operator",
          "type": "address"
        },
        {
          "indexed": false,
          "internalType": "bool",
          "name": "approved",
          "type": "bool"
        }
      ],
      "name": "ApprovalForAll",
      "type": "event"
    },
    {
      "anonymous": false,
      "inputs": [
        {
          "indexed": true,
          "internalType": "address",
          "name": "from",
          "type": "address"
        },
        {
          "indexed": true,
          "internalType": "address",
          "name": "to",
          "type": "address"
        },
        {
          "indexed": true,
          "internalType": "uint256",
          "name": "tokenId",
          "type": "uint256"
        }
      ],
      "name": "Transfer",
      "type": "event"
    },
    {
      "inputs": [
        {
          "internalType": "uint256",
          "name": "",
          "type": "uint256"
        }
      ],
      "name": "Items",
      "outputs": [
        {
          "internalType": "uint256",
          "name": "id",
          "type": "uint256"
        },
        {
          "internalType": "address",
          "name": "creator",
          "type": "address"
        },
        {
          "internalType": "string",
          "name": "uri",
          "type": "string"
        }
      ],
      "stateMutability": "view",
      "type": "function",
      "constant": true
    },
    {
      "inputs": [
        {
          "internalType": "address",
          "name": "to",
          "type": "address"
        },
        {
          "internalType": "uint256",
          "name": "tokenId",
          "type": "uint256"
        }
      ],
      "name": "approve",
      "outputs": [],
      "stateMutability": "nonpayable",
      "type": "function"
    },
    {
      "inputs": [
        {
          "internalType": "address",
          "name": "owner",
          "type": "address"
        }
      ],
      "name": "balanceOf",
      "outputs": [
        {
          "internalType": "uint256",
          "name": "",
          "type": "uint256"
        }
      ],
      "stateMutability": "view",
      "type": "function",
      "constant": true
    },
    {
      "inputs": [
        {
          "internalType": "uint256",
          "name": "tokenId",
          "type": "uint256"
        }
      ],
      "name": "getApproved",
      "outputs": [
        {
          "internalType": "address",
          "name": "",
          "type": "address"
        }
      ],
      "stateMutability": "view",
      "type": "function",
      "constant": true
    },
    {
      "inputs": [
        {
          "internalType": "address",
          "name": "owner",
          "type": "address"
        },
        {
          "internalType": "address",
          "name": "operator",
          "type": "address"
        }
      ],
      "name": "isApprovedForAll",
      "outputs": [
        {
          "internalType": "bool",
          "name": "",
          "type": "bool"
        }
      ],
      "stateMutability": "view",
      "type": "function",
      "constant": true
    },
    {
      "inputs": [],
      "name": "name",
      "outputs": [
        {
          "internalType": "string",
          "name": "",
          "type": "string"
        }
      ],
      "stateMutability": "view",
      "type": "function",
      "constant": true
    },
    {
      "inputs": [
        {
          "internalType": "uint256",
          "name": "tokenId",
          "type": "uint256"
        }
      ],
      "name": "ownerOf",
      "outputs": [
        {
          "internalType": "address",
          "name": "",
          "type": "address"
        }
      ],
      "stateMutability": "view",
      "type": "function",
      "constant": true
    },
    {
      "inputs": [
        {
          "internalType": "address",
          "name": "from",
          "type": "address"
        },
        {
          "internalType": "address",
          "name": "to",
          "type": "address"
        },
        {
          "internalType": "uint256",
          "name": "tokenId",
          "type": "uint256"
        }
      ],
      "name": "safeTransferFrom",
      "outputs": [],
      "stateMutability": "nonpayable",
      "type": "function"
    },
    {
      "inputs": [
        {
          "internalType": "address",
          "name": "from",
          "type": "address"
        },
        {
          "internalType": "address",
          "name": "to",
          "type": "address"
        },
        {
          "internalType": "uint256",
          "name": "tokenId",
          "type": "uint256"
        },
        {
          "internalType": "bytes",
          "name": "data",
          "type": "bytes"
        }
      ],
      "name": "safeTransferFrom",
      "outputs": [],
      "stateMutability": "nonpayable",
      "type": "function"
    },
    {
      "inputs": [
        {
          "internalType": "address",
          "name": "operator",
          "type": "address"
        },
        {
          "internalType": "bool",
          "name": "approved",
          "type": "bool"
        }
      ],
      "name": "setApprovalForAll",
      "outputs": [],
      "stateMutability": "nonpayable",
      "type": "function"
    },
    {
      "inputs": [
        {
          "internalType": "bytes4",
          "name": "interfaceId",
          "type": "bytes4"
        }
      ],
      "name": "supportsInterface",
      "outputs": [
        {
          "internalType": "bool",
          "name": "",
          "type": "bool"
        }
      ],
      "stateMutability": "view",
      "type": "function",
      "constant": true
    },
    {
      "inputs": [],
      "name": "symbol",
      "outputs": [
        {
          "internalType": "string",
          "name": "",
          "type": "string"
        }
      ],
      "stateMutability": "view",
      "type": "function",
      "constant": true
    },
    {
      "inputs": [
        {
          "internalType": "address",
          "name": "from",
          "type": "address"
        },
        {
          "internalType": "address",
          "name": "to",
          "type": "address"
        },
        {
          "internalType": "uint256",
          "name": "tokenId",
          "type": "uint256"
        }
      ],
      "name": "transferFrom",
      "outputs": [],
      "stateMutability": "nonpayable",
      "type": "function"
    },
    {
      "inputs": [
        {
          "internalType": "string",
          "name": "uri",
          "type": "string"
        }
      ],
      "name": "createItem",
      "outputs": [
        {
          "internalType": "uint256",
          "name": "",
          "type": "uint256"
        }
      ],
      "stateMutability": "nonpayable",
      "type": "function"
    },
    {
      "inputs": [
        {
          "internalType": "uint256",
          "name": "tokenId",
          "type": "uint256"
        }
      ],
      "name": "tokenURI",
      "outputs": [
        {
          "internalType": "string",
          "name": "",
          "type": "string"
        }
      ],
      "stateMutability": "view",
      "type": "function",
      "constant": true
    }
  ],
  "bytecode": "0x60806040523480156200001157600080fd5b506040518060400160405280600d81526020017f53686f7245617365546f6b656e000000000000000000000000000000000000008152506040518060400160405280600581526020017f53484f524500000000000000000000000000000000000000000000000000000081525081600090816200008f919062000324565b508060019081620000a1919062000324565b5050506200040b565b600081519050919050565b7f4e487b7100000000000000000000000000000000000000000000000000000000600052604160045260246000fd5b7f4e487b7100000000000000000000000000000000000000000000000000000000600052602260045260246000fd5b600060028204905060018216806200012c57607f821691505b602082108103620001425762000141620000e4565b5b50919050565b60008190508160005260206000209050919050565b60006020601f8301049050919050565b600082821b905092915050565b600060088302620001ac7fffffffffffffffffffffffffffffffffffffffffffffffffffffffffffffffff826200016d565b620001b886836200016d565b95508019841693508086168417925050509392505050565b6000819050919050565b6000819050919050565b600062000205620001ff620001f984620001d0565b620001da565b620001d0565b9050919050565b6000819050919050565b6200022183620001e4565b6200023962000230826200020c565b8484546200017a565b825550505050565b600090565b6200025062000241565b6200025d81848462000216565b505050565b5b8181101562000285576200027960008262000246565b60018101905062000263565b5050565b601f821115620002d4576200029e8162000148565b620002a9846200015d565b81016020851015620002b9578190505b620002d1620002c8856200015d565b83018262000262565b50505b505050565b600082821c905092915050565b6000620002f960001984600802620002d9565b1980831691505092915050565b6000620003148383620002e6565b9150826002028217905092915050565b6200032f82620000aa565b67ffffffffffffffff8111156200034b576200034a620000b5565b5b62000357825462000113565b6200036482828562000289565b600060209050601f8311600181146200039c576000841562000387578287015190505b62000393858262000306565b86555062000403565b601f198416620003ac8662000148565b60005b82811015620003d657848901518255600182019150602085019450602081019050620003af565b86831015620003f65784890151620003f2601f891682620002e6565b8355505b6001600288020188555050505b505050505050565b6128e2806200041b6000396000f3fe608060405234801561001057600080fd5b50600436106100f55760003560e01c806342842e0e11610097578063a22cb46511610066578063a22cb465146102ac578063b88d4fde146102c8578063c87b56dd146102e4578063e985e9c514610314576100f5565b806342842e0e146102125780636352211e1461022e57806370a082311461025e57806395d89b411461028e576100f5565b8063095ea7b3116100d3578063095ea7b31461017857806317b47cc41461019457806323b872dd146101c65780633d54eebb146101e2576100f5565b806301ffc9a7146100fa57806306fdde031461012a578063081812fc14610148575b600080fd5b610114600480360381019061010f9190611773565b610344565b60405161012191906117bb565b60405180910390f35b610132610426565b60405161013f919061186f565b60405180910390f35b610162600480360381019061015d91906118c7565b6104b8565b60405161016f9190611935565b60405180910390f35b610192600480360381019061018d919061197c565b6104fe565b005b6101ae60048036038101906101a991906118c7565b610615565b6040516101bd939291906119cb565b60405180910390f35b6101e060048036038101906101db9190611a09565b6106e7565b005b6101fc60048036038101906101f79190611b91565b610747565b6040516102099190611bda565b60405180910390f35b61022c60048036038101906102279190611a09565b610822565b005b610248600480360381019061024391906118c7565b610842565b6040516102559190611935565b60405180910390f35b61027860048036038101906102739190611bf5565b6108f3565b6040516102859190611bda565b60405180910390f35b6102966109aa565b6040516102a3919061186f565b60405180910390f35b6102c660048036038101906102c19190611c4e565b610a3c565b005b6102e260048036038101906102dd9190611d2f565b610a52565b005b6102fe60048036038101906102f991906118c7565b610ab4565b60405161030b919061186f565b60405180910390f35b61032e60048036038101906103299190611db2565b610ba4565b60405161033b91906117bb565b60405180910390f35b60007f80ac58cd000000000000000000000000000000000000000000000000000000007bffffffffffffffffffffffffffffffffffffffffffffffffffffffff1916827bffffffffffffffffffffffffffffffffffffffffffffffffffffffff1916148061040f57507f5b5e139f000000000000000000000000000000000000000000000000000000007bffffffffffffffffffffffffffffffffffffffffffffffffffffffff1916827bffffffffffffffffffffffffffffffffffffffffffffffffffffffff1916145b8061041f575061041e82610c38565b5b9050919050565b60606000805461043590611e21565b80601f016020809104026020016040519081016040528092919081815260200182805461046190611e21565b80156104ae5780601f10610483576101008083540402835291602001916104ae565b820191906000526020600020905b81548152906001019060200180831161049157829003601f168201915b5050505050905090565b60006104c382610ca2565b6004600083815260200190815260200160002060009054906101000a900473ffffffffffffffffffffffffffffffffffffffff169050919050565b600061050982610842565b90508073ffffffffffffffffffffffffffffffffffffffff168373ffffffffffffffffffffffffffffffffffffffff1603610579576040517f08c379a000000000000000000000000000000000000000000000000000000000815260040161057090611ec4565b60405180910390fd5b8073ffffffffffffffffffffffffffffffffffffffff16610598610ced565b73ffffffffffffffffffffffffffffffffffffffff1614806105c757506105c6816105c1610ced565b610ba4565b5b610606576040517f08c379a00000000000000000000000000000000000000000000000000000000081526004016105fd90611f56565b60405180910390fd5b6106108383610cf5565b505050565b60076020528060005260406000206000915090508060000154908060010160009054906101000a900473ffffffffffffffffffffffffffffffffffffffff169080600201805461066490611e21565b80601f016020809104026020016040519081016040528092919081815260200182805461069090611e21565b80156106dd5780601f106106b2576101008083540402835291602001916106dd565b820191906000526020600020905b8154815290600101906020018083116106c057829003601f168201915b5050505050905083565b6106f86106f2610ced565b82610dae565b610737576040517f08c379a000000000000000000000000000000000000000000000000000000000815260040161072e90611fe8565b60405180910390fd5b610742838383610e43565b505050565b600061075360066110a9565b600061075f60066110bf565b905061076b33826110cd565b60405180606001604052808281526020013373ffffffffffffffffffffffffffffffffffffffff16815260200184815250600760008381526020019081526020016000206000820151816000015560208201518160010160006101000a81548173ffffffffffffffffffffffffffffffffffffffff021916908373ffffffffffffffffffffffffffffffffffffffff160217905550604082015181600201908161081591906121b4565b5090505080915050919050565b61083d83838360405180602001604052806000815250610a52565b505050565b6000806002600084815260200190815260200160002060009054906101000a900473ffffffffffffffffffffffffffffffffffffffff169050600073ffffffffffffffffffffffffffffffffffffffff168173ffffffffffffffffffffffffffffffffffffffff16036108ea576040517f08c379a00000000000000000000000000000000000000000000000000000000081526004016108e1906122d2565b60405180910390fd5b80915050919050565b60008073ffffffffffffffffffffffffffffffffffffffff168273ffffffffffffffffffffffffffffffffffffffff1603610963576040517f08c379a000000000000000000000000000000000000000000000000000000000815260040161095a90612364565b60405180910390fd5b600360008373ffffffffffffffffffffffffffffffffffffffff1673ffffffffffffffffffffffffffffffffffffffff168152602001908152602001600020549050919050565b6060600180546109b990611e21565b80601f01602080910402602001604051908101604052809291908181526020018280546109e590611e21565b8015610a325780601f10610a0757610100808354040283529160200191610a32565b820191906000526020600020905b815481529060010190602001808311610a1557829003601f168201915b5050505050905090565b610a4e610a47610ced565b83836110eb565b5050565b610a63610a5d610ced565b83610dae565b610aa2576040517f08c379a0000000000000000000000000000000000000000000000000000000008152600401610a9990611fe8565b60405180910390fd5b610aae84848484611257565b50505050565b6060610abf826112b3565b610afe576040517f08c379a0000000000000000000000000000000000000000000000000000000008152600401610af5906123f6565b60405180910390fd5b600760008381526020019081526020016000206002018054610b1f90611e21565b80601f0160208091040260200160405190810160405280929190818152602001828054610b4b90611e21565b8015610b985780601f10610b6d57610100808354040283529160200191610b98565b820191906000526020600020905b815481529060010190602001808311610b7b57829003601f168201915b50505050509050919050565b6000600560008473ffffffffffffffffffffffffffffffffffffffff1673ffffffffffffffffffffffffffffffffffffffff16815260200190815260200160002060008373ffffffffffffffffffffffffffffffffffffffff1673ffffffffffffffffffffffffffffffffffffffff16815260200190815260200160002060009054906101000a900460ff16905092915050565b60007f01ffc9a7000000000000000000000000000000000000000000000000000000007bffffffffffffffffffffffffffffffffffffffffffffffffffffffff1916827bffffffffffffffffffffffffffffffffffffffffffffffffffffffff1916149050919050565b610cab816112b3565b610cea576040517f08c379a0000000000000000000000000000000000000000000000000000000008152600401610ce1906122d2565b60405180910390fd5b50565b600033905090565b816004600083815260200190815260200160002060006101000a81548173ffffffffffffffffffffffffffffffffffffffff021916908373ffffffffffffffffffffffffffffffffffffffff160217905550808273ffffffffffffffffffffffffffffffffffffffff16610d6883610842565b73ffffffffffffffffffffffffffffffffffffffff167f8c5be1e5ebec7d5bd14f71427d1e84f3dd0314c0f7b2291e5b200ac8c7c3b92560405160405180910390a45050565b600080610dba83610842565b90508073ffffffffffffffffffffffffffffffffffffffff168473ffffffffffffffffffffffffffffffffffffffff161480610dfc5750610dfb8185610ba4565b5b80610e3a57508373ffffffffffffffffffffffffffffffffffffffff16610e22846104b8565b73ffffffffffffffffffffffffffffffffffffffff16145b91505092915050565b8273ffffffffffffffffffffffffffffffffffffffff16610e6382610842565b73ffffffffffffffffffffffffffffffffffffffff1614610eb9576040517f08c379a0000000000000000000000000000000000000000000000000000000008152600401610eb090612488565b60405180910390fd5b600073ffffffffffffffffffffffffffffffffffffffff168273ffffffffffffffffffffffffffffffffffffffff1603610f28576040517f08c379a0000000000000000000000000000000000000000000000000000000008152600401610f1f9061251a565b60405180910390fd5b610f3383838361131f565b610f3e600082610cf5565b6001600360008573ffffffffffffffffffffffffffffffffffffffff1673ffffffffffffffffffffffffffffffffffffffff1681526020019081526020016000206000828254610f8e9190612569565b925050819055506001600360008473ffffffffffffffffffffffffffffffffffffffff1673ffffffffffffffffffffffffffffffffffffffff1681526020019081526020016000206000828254610fe5919061259d565b92505081905550816002600083815260200190815260200160002060006101000a81548173ffffffffffffffffffffffffffffffffffffffff021916908373ffffffffffffffffffffffffffffffffffffffff160217905550808273ffffffffffffffffffffffffffffffffffffffff168473ffffffffffffffffffffffffffffffffffffffff167fddf252ad1be2c89b69c2b068fc378daa952ba7f163c4a11628f55a4df523b3ef60405160405180910390a46110a4838383611324565b505050565b6001816000016000828254019250508190555050565b600081600001549050919050565b6110e7828260405180602001604052806000815250611329565b5050565b8173ffffffffffffffffffffffffffffffffffffffff168373ffffffffffffffffffffffffffffffffffffffff1603611159576040517f08c379a00000000000000000000000000000000000000000000000000000000081526004016111509061263f565b60405180910390fd5b80600560008573ffffffffffffffffffffffffffffffffffffffff1673ffffffffffffffffffffffffffffffffffffffff16815260200190815260200160002060008473ffffffffffffffffffffffffffffffffffffffff1673ffffffffffffffffffffffffffffffffffffffff16815260200190815260200160002060006101000a81548160ff0219169083151502179055508173ffffffffffffffffffffffffffffffffffffffff168373ffffffffffffffffffffffffffffffffffffffff167f17307eab39ab6107e8899845ad3d59bd9653f200f220920489ca2b5937696c318360405161124a91906117bb565b60405180910390a3505050565b611262848484610e43565b61126e84848484611384565b6112ad576040517f08c379a00000000000000000000000000000000000000000000000000000000081526004016112a4906126d1565b60405180910390fd5b50505050565b60008073ffffffffffffffffffffffffffffffffffffffff166002600084815260200190815260200160002060009054906101000a900473ffffffffffffffffffffffffffffffffffffffff1673ffffffffffffffffffffffffffffffffffffffff1614159050919050565b505050565b505050565b611333838361150b565b6113406000848484611384565b61137f576040517f08c379a0000000000000000000000000000000000000000000000000000000008152600401611376906126d1565b60405180910390fd5b505050565b60006113a58473ffffffffffffffffffffffffffffffffffffffff166116e4565b156114fe578373ffffffffffffffffffffffffffffffffffffffff1663150b7a026113ce610ced565b8786866040518563ffffffff1660e01b81526004016113f09493929190612746565b6020604051808303816000875af192505050801561142c57506040513d601f19601f8201168201806040525081019061142991906127a7565b60015b6114ae573d806000811461145c576040519150601f19603f3d011682016040523d82523d6000602084013e611461565b606091505b5060008151036114a6576040517f08c379a000000000000000000000000000000000000000000000000000000000815260040161149d906126d1565b60405180910390fd5b805181602001fd5b63150b7a0260e01b7bffffffffffffffffffffffffffffffffffffffffffffffffffffffff1916817bffffffffffffffffffffffffffffffffffffffffffffffffffffffff191614915050611503565b600190505b949350505050565b600073ffffffffffffffffffffffffffffffffffffffff168273ffffffffffffffffffffffffffffffffffffffff160361157a576040517f08c379a000000000000000000000000000000000000000000000000000000000815260040161157190612820565b60405180910390fd5b611583816112b3565b156115c3576040517f08c379a00000000000000000000000000000000000000000000000000000000081526004016115ba9061288c565b60405180910390fd5b6115cf6000838361131f565b6001600360008473ffffffffffffffffffffffffffffffffffffffff1673ffffffffffffffffffffffffffffffffffffffff168152602001908152602001600020600082825461161f919061259d565b92505081905550816002600083815260200190815260200160002060006101000a81548173ffffffffffffffffffffffffffffffffffffffff021916908373ffffffffffffffffffffffffffffffffffffffff160217905550808273ffffffffffffffffffffffffffffffffffffffff16600073ffffffffffffffffffffffffffffffffffffffff167fddf252ad1be2c89b69c2b068fc378daa952ba7f163c4a11628f55a4df523b3ef60405160405180910390a46116e060008383611324565b5050565b6000808273ffffffffffffffffffffffffffffffffffffffff163b119050919050565b6000604051905090565b600080fd5b600080fd5b60007fffffffff0000000000000000000000000000000000000000000000000000000082169050919050565b6117508161171b565b811461175b57600080fd5b50565b60008135905061176d81611747565b92915050565b60006020828403121561178957611788611711565b5b60006117978482850161175e565b91505092915050565b60008115159050919050565b6117b5816117a0565b82525050565b60006020820190506117d060008301846117ac565b92915050565b600081519050919050565b600082825260208201905092915050565b60005b838110156118105780820151818401526020810190506117f5565b8381111561181f576000848401525b50505050565b6000601f19601f8301169050919050565b6000611841826117d6565b61184b81856117e1565b935061185b8185602086016117f2565b61186481611825565b840191505092915050565b600060208201905081810360008301526118898184611836565b905092915050565b6000819050919050565b6118a481611891565b81146118af57600080fd5b50565b6000813590506118c18161189b565b92915050565b6000602082840312156118dd576118dc611711565b5b60006118eb848285016118b2565b91505092915050565b600073ffffffffffffffffffffffffffffffffffffffff82169050919050565b600061191f826118f4565b9050919050565b61192f81611914565b82525050565b600060208201905061194a6000830184611926565b92915050565b61195981611914565b811461196457600080fd5b50565b60008135905061197681611950565b92915050565b6000806040838503121561199357611992611711565b5b60006119a185828601611967565b92505060206119b2858286016118b2565b9150509250929050565b6119c581611891565b82525050565b60006060820190506119e060008301866119bc565b6119ed6020830185611926565b81810360408301526119ff8184611836565b9050949350505050565b600080600060608486031215611a2257611a21611711565b5b6000611a3086828701611967565b9350506020611a4186828701611967565b9250506040611a52868287016118b2565b9150509250925092565b600080fd5b600080fd5b7f4e487b7100000000000000000000000000000000000000000000000000000000600052604160045260246000fd5b611a9e82611825565b810181811067ffffffffffffffff82111715611abd57611abc611a66565b5b80604052505050565b6000611ad0611707565b9050611adc8282611a95565b919050565b600067ffffffffffffffff821115611afc57611afb611a66565b5b611b0582611825565b9050602081019050919050565b82818337600083830152505050565b6000611b34611b2f84611ae1565b611ac6565b905082815260208101848484011115611b5057611b4f611a61565b5b611b5b848285611b12565b509392505050565b600082601f830112611b7857611b77611a5c565b5b8135611b88848260208601611b21565b91505092915050565b600060208284031215611ba757611ba6611711565b5b600082013567ffffffffffffffff811115611bc557611bc4611716565b5b611bd184828501611b63565b91505092915050565b6000602082019050611bef60008301846119bc565b92915050565b600060208284031215611c0b57611c0a611711565b5b6000611c1984828501611967565b91505092915050565b611c2b816117a0565b8114611c3657600080fd5b50565b600081359050611c4881611c22565b92915050565b60008060408385031215611c6557611c64611711565b5b6000611c7385828601611967565b9250506020611c8485828601611c39565b9150509250929050565b600067ffffffffffffffff821115611ca957611ca8611a66565b5b611cb282611825565b9050602081019050919050565b6000611cd2611ccd84611c8e565b611ac6565b905082815260208101848484011115611cee57611ced611a61565b5b611cf9848285611b12565b509392505050565b600082601f830112611d1657611d15611a5c565b5b8135611d26848260208601611cbf565b91505092915050565b60008060008060808587031215611d4957611d48611711565b5b6000611d5787828801611967565b9450506020611d6887828801611967565b9350506040611d79878288016118b2565b925050606085013567ffffffffffffffff811115611d9a57611d99611716565b5b611da687828801611d01565b91505092959194509250565b60008060408385031215611dc957611dc8611711565b5b6000611dd785828601611967565b9250506020611de885828601611967565b9150509250929050565b7f4e487b7100000000000000000000000000000000000000000000000000000000600052602260045260246000fd5b60006002820490506001821680611e3957607f821691505b602082108103611e4c57611e4b611df2565b5b50919050565b7f4552433732313a20617070726f76616c20746f2063757272656e74206f776e6560008201527f7200000000000000000000000000000000000000000000000000000000000000602082015250565b6000611eae6021836117e1565b9150611eb982611e52565b604082019050919050565b60006020820190508181036000830152611edd81611ea1565b9050919050565b7f4552433732313a20617070726f76652063616c6c6572206973206e6f7420746f60008201527f6b656e206f776e6572206e6f7220617070726f76656420666f7220616c6c0000602082015250565b6000611f40603e836117e1565b9150611f4b82611ee4565b604082019050919050565b60006020820190508181036000830152611f6f81611f33565b9050919050565b7f4552433732313a2063616c6c6572206973206e6f7420746f6b656e206f776e6560008201527f72206e6f7220617070726f766564000000000000000000000000000000000000602082015250565b6000611fd2602e836117e1565b9150611fdd82611f76565b604082019050919050565b6000602082019050818103600083015261200181611fc5565b9050919050565b60008190508160005260206000209050919050565b60006020601f8301049050919050565b600082821b905092915050565b60006008830261206a7fffffffffffffffffffffffffffffffffffffffffffffffffffffffffffffffff8261202d565b612074868361202d565b95508019841693508086168417925050509392505050565b6000819050919050565b60006120b16120ac6120a784611891565b61208c565b611891565b9050919050565b6000819050919050565b6120cb83612096565b6120df6120d7826120b8565b84845461203a565b825550505050565b600090565b6120f46120e7565b6120ff8184846120c2565b505050565b5b81811015612123576121186000826120ec565b600181019050612105565b5050565b601f8211156121685761213981612008565b6121428461201d565b81016020851015612151578190505b61216561215d8561201d565b830182612104565b50505b505050565b600082821c905092915050565b600061218b6000198460080261216d565b1980831691505092915050565b60006121a4838361217a565b9150826002028217905092915050565b6121bd826117d6565b67ffffffffffffffff8111156121d6576121d5611a66565b5b6121e08254611e21565b6121eb828285612127565b600060209050601f83116001811461221e576000841561220c578287015190505b6122168582612198565b86555061227e565b601f19841661222c86612008565b60005b828110156122545784890151825560018201915060208501945060208101905061222f565b86831015612271578489015161226d601f89168261217a565b8355505b6001600288020188555050505b505050505050565b7f4552433732313a20696e76616c696420746f6b656e2049440000000000000000600082015250565b60006122bc6018836117e1565b91506122c782612286565b602082019050919050565b600060208201905081810360008301526122eb816122af565b9050919050565b7f4552433732313a2061646472657373207a65726f206973206e6f74206120766160008201527f6c6964206f776e65720000000000000000000000000000000000000000000000602082015250565b600061234e6029836117e1565b9150612359826122f2565b604082019050919050565b6000602082019050818103600083015261237d81612341565b9050919050565b7f4552433732314d657461646174613a2055524920717565727920666f72206e6f60008201527f6e6578697374656e7420746f6b656e0000000000000000000000000000000000602082015250565b60006123e0602f836117e1565b91506123eb82612384565b604082019050919050565b6000602082019050818103600083015261240f816123d3565b9050919050565b7f4552433732313a207472616e736665722066726f6d20696e636f72726563742060008201527f6f776e6572000000000000000000000000000000000000000000000000000000602082015250565b60006124726025836117e1565b915061247d82612416565b604082019050919050565b600060208201905081810360008301526124a181612465565b9050919050565b7f4552433732313a207472616e7366657220746f20746865207a65726f2061646460008201527f7265737300000000000000000000000000000000000000000000000000000000602082015250565b60006125046024836117e1565b915061250f826124a8565b604082019050919050565b60006020820190508181036000830152612533816124f7565b9050919050565b7f4e487b7100000000000000000000000000000000000000000000000000000000600052601160045260246000fd5b600061257482611891565b915061257f83611891565b9250828210156125925761259161253a565b5b828203905092915050565b60006125a882611891565b91506125b383611891565b9250827fffffffffffffffffffffffffffffffffffffffffffffffffffffffffffffffff038211156125e8576125e761253a565b5b828201905092915050565b7f4552433732313a20617070726f766520746f2063616c6c657200000000000000600082015250565b60006126296019836117e1565b9150612634826125f3565b602082019050919050565b600060208201905081810360008301526126588161261c565b9050919050565b7f4552433732313a207472616e7366657220746f206e6f6e20455243373231526560008201527f63656976657220696d706c656d656e7465720000000000000000000000000000602082015250565b60006126bb6032836117e1565b91506126c68261265f565b604082019050919050565b600060208201905081810360008301526126ea816126ae565b9050919050565b600081519050919050565b600082825260208201905092915050565b6000612718826126f1565b61272281856126fc565b93506127328185602086016117f2565b61273b81611825565b840191505092915050565b600060808201905061275b6000830187611926565b6127686020830186611926565b61277560408301856119bc565b8181036060830152612787818461270d565b905095945050505050565b6000815190506127a181611747565b92915050565b6000602082840312156127bd576127bc611711565b5b60006127cb84828501612792565b91505092915050565b7f4552433732313a206d696e7420746f20746865207a65726f2061646472657373600082015250565b600061280a6020836117e1565b9150612815826127d4565b602082019050919050565b60006020820190508181036000830152612839816127fd565b9050919050565b7f4552433732313a20746f6b656e20616c7265616479206d696e74656400000000600082015250565b6000612876601c836117e1565b915061288182612840565b602082019050919050565b600060208201905081810360008301526128a581612869565b905091905056fea26469706673582212201e9b32b320f40be54c75f38303e451c4e5a3c0541840dba07b2cbe5e34de82ef64736f6c634300080f0033",
  "immutableReferences": {},
  "source": "pragma solidity ^0.8.0;\r\n\r\nimport \"../node_modules/@openzeppelin/contracts/token/ERC721/ERC721.sol\";\r\nimport \"../node_modules/@openzeppelin/contracts/utils/Counters.sol\";\r\n\r\ncontract ShorEaseToken is ERC721 {\r\n    using Counters for Counters.Counter;\r\n    Counters.Counter private _tokenIds;\r\n\r\n    constructor () ERC721(\"ShorEaseToken\", \"SHORE\"){}\r\n\r\n    struct Item {\r\n        uint256 id;\r\n        address creator;\r\n        string uri;\r\n    }\r\n\r\n    mapping (uint256 => Item) public Items;\r\n\r\n    function createItem(string memory uri) public returns (uint256){\r\n        _tokenIds.increment();\r\n        uint256 newItemId = _tokenIds.current();\r\n        _safeMint(msg.sender, newItemId);\r\n\r\n        Items[newItemId] = Item(newItemId, msg.sender, uri);\r\n\r\n        return newItemId;\r\n    }\r\n\r\n    function tokenURI(uint256 tokenId) public view override returns (string memory) {\r\n        require(_exists(tokenId), \"ERC721Metadata: URI query for nonexistent token\");\r\n\r\n       return Items[tokenId].uri;\r\n    }\r\n}",
  "sourcePath": "C:\\xampp\\htdocs\\shorease\\contracts\\contracts\\ShorEaseToken.sol",
  "compiler": {
    "name": "solc",
    "version": "0.8.15+commit.e14f2714.Emscripten.clang"
  },
  "schemaVersion": "3.4.8",
  "updatedAt": "2022-07-30T09:52:37.877Z",
  "networkType": "ethereum",
  "devdoc": {
    "kind": "dev",
    "methods": {
      "approve(address,uint256)": {
        "details": "See {IERC721-approve}."
      },
      "balanceOf(address)": {
        "details": "See {IERC721-balanceOf}."
      },
      "getApproved(uint256)": {
        "details": "See {IERC721-getApproved}."
      },
      "isApprovedForAll(address,address)": {
        "details": "See {IERC721-isApprovedForAll}."
      },
      "name()": {
        "details": "See {IERC721Metadata-name}."
      },
      "ownerOf(uint256)": {
        "details": "See {IERC721-ownerOf}."
      },
      "safeTransferFrom(address,address,uint256)": {
        "details": "See {IERC721-safeTransferFrom}."
      },
      "safeTransferFrom(address,address,uint256,bytes)": {
        "details": "See {IERC721-safeTransferFrom}."
      },
      "setApprovalForAll(address,bool)": {
        "details": "See {IERC721-setApprovalForAll}."
      },
      "supportsInterface(bytes4)": {
        "details": "See {IERC165-supportsInterface}."
      },
      "symbol()": {
        "details": "See {IERC721Metadata-symbol}."
      },
      "tokenURI(uint256)": {
        "details": "See {IERC721Metadata-tokenURI}."
      },
      "transferFrom(address,address,uint256)": {
        "details": "See {IERC721-transferFrom}."
      }
    },
    "version": 1
  },
  "userdoc": {
    "kind": "user",
    "methods": {},
    "version": 1
  }
}